{
  "contractName": "EHR",
  "abi": [
    {
      "inputs": [],
      "payable": false,
      "stateMutability": "nonpayable",
      "type": "constructor"
    },
    {
      "constant": true,
      "inputs": [
        {
          "internalType": "uint256",
          "name": "",
          "type": "uint256"
        }
      ],
      "name": "DocIds",
      "outputs": [
        {
          "internalType": "address",
          "name": "",
          "type": "address"
        }
      ],
      "payable": false,
      "stateMutability": "view",
      "type": "function"
    },
    {
      "constant": true,
      "inputs": [
        {
          "internalType": "uint256",
          "name": "",
          "type": "uint256"
        }
      ],
      "name": "PatIds",
      "outputs": [
        {
          "internalType": "address",
          "name": "",
          "type": "address"
        }
      ],
      "payable": false,
      "stateMutability": "view",
      "type": "function"
    },
    {
      "constant": true,
      "inputs": [
        {
          "internalType": "uint256",
          "name": "",
          "type": "uint256"
        }
      ],
      "name": "RecordHashes",
      "outputs": [
        {
          "internalType": "string",
          "name": "",
          "type": "string"
        }
      ],
      "payable": false,
      "stateMutability": "view",
      "type": "function"
    },
    {
      "constant": true,
      "inputs": [],
      "name": "getAdmin",
      "outputs": [
        {
          "internalType": "address",
          "name": "",
          "type": "address"
        }
      ],
      "payable": false,
      "stateMutability": "view",
      "type": "function"
    },
    {
      "constant": false,
      "inputs": [
        {
          "internalType": "address",
          "name": "publicKey",
          "type": "address"
        },
        {
          "internalType": "string",
          "name": "_drInfo_hash",
          "type": "string"
        }
      ],
      "name": "addDoctorInfo",
      "outputs": [],
      "payable": false,
      "stateMutability": "nonpayable",
      "type": "function"
    },
    {
      "constant": false,
      "inputs": [
        {
          "internalType": "address",
          "name": "publicKey",
          "type": "address"
        },
        {
          "internalType": "string",
          "name": "_drInfo_hash",
          "type": "string"
        }
      ],
      "name": "updateDoctorInfo",
      "outputs": [],
      "payable": false,
      "stateMutability": "nonpayable",
      "type": "function"
    },
    {
      "constant": false,
      "inputs": [
        {
          "internalType": "address",
          "name": "publicKey",
          "type": "address"
        }
      ],
      "name": "deleteDoctor",
      "outputs": [],
      "payable": false,
      "stateMutability": "nonpayable",
      "type": "function"
    },
    {
      "constant": true,
      "inputs": [],
      "name": "getDoctorId",
      "outputs": [
        {
          "internalType": "address",
          "name": "",
          "type": "address"
        }
      ],
      "payable": false,
      "stateMutability": "view",
      "type": "function"
    },
    {
      "constant": true,
      "inputs": [
        {
          "internalType": "address",
          "name": "publicKey",
          "type": "address"
        }
      ],
      "name": "getDoctorInfoByAddress",
      "outputs": [
        {
          "internalType": "string",
          "name": "",
          "type": "string"
        }
      ],
      "payable": false,
      "stateMutability": "view",
      "type": "function"
    },
    {
      "constant": true,
      "inputs": [
        {
          "internalType": "address",
          "name": "publicKey",
          "type": "address"
        }
      ],
      "name": "isDoctor",
      "outputs": [
        {
          "internalType": "bool",
          "name": "",
          "type": "bool"
        }
      ],
      "payable": false,
      "stateMutability": "view",
      "type": "function"
    },
    {
      "constant": true,
      "inputs": [],
      "name": "getDoctorsCount",
      "outputs": [
        {
          "internalType": "uint256",
          "name": "",
          "type": "uint256"
        }
      ],
      "payable": false,
      "stateMutability": "view",
      "type": "function"
    },
    {
      "constant": false,
      "inputs": [
        {
          "internalType": "address",
          "name": "publicKey",
          "type": "address"
        },
        {
          "internalType": "string",
          "name": "_patInfo_hash",
          "type": "string"
        }
      ],
      "name": "addPatientInfo",
      "outputs": [],
      "payable": false,
      "stateMutability": "nonpayable",
      "type": "function"
    },
    {
      "constant": true,
      "inputs": [
        {
          "internalType": "address",
          "name": "publicKey",
          "type": "address"
        }
      ],
      "name": "isPatient",
      "outputs": [
        {
          "internalType": "bool",
          "name": "",
          "type": "bool"
        }
      ],
      "payable": false,
      "stateMutability": "view",
      "type": "function"
    },
    {
      "constant": false,
      "inputs": [
        {
          "internalType": "address",
          "name": "publicKey",
          "type": "address"
        }
      ],
      "name": "deletePatient",
      "outputs": [],
      "payable": false,
      "stateMutability": "nonpayable",
      "type": "function"
    },
    {
      "constant": false,
      "inputs": [
        {
          "internalType": "address",
          "name": "publicKey",
          "type": "address"
        },
        {
          "internalType": "string",
          "name": "_patInfo_hash",
          "type": "string"
        }
      ],
      "name": "updatePatientInfo",
      "outputs": [],
      "payable": false,
      "stateMutability": "nonpayable",
      "type": "function"
    },
    {
      "constant": true,
      "inputs": [
        {
          "internalType": "address",
          "name": "publicKey",
          "type": "address"
        }
      ],
      "name": "getPatientInfoByAddress",
      "outputs": [
        {
          "internalType": "string",
          "name": "",
          "type": "string"
        }
      ],
      "payable": false,
      "stateMutability": "view",
      "type": "function"
    },
    {
      "constant": false,
      "inputs": [
        {
          "internalType": "string",
          "name": "_recHash",
          "type": "string"
        },
        {
          "internalType": "address",
          "name": "_pat_id",
          "type": "address"
        }
      ],
      "name": "addMedicalRecord",
      "outputs": [],
      "payable": false,
      "stateMutability": "nonpayable",
      "type": "function"
    },
    {
      "constant": true,
      "inputs": [
        {
          "internalType": "address",
          "name": "_pat_id",
          "type": "address"
        }
      ],
      "name": "viewMedicalRecord",
      "outputs": [
        {
          "internalType": "string",
          "name": "",
          "type": "string"
        }
      ],
      "payable": false,
      "stateMutability": "view",
      "type": "function"
    }
  ],
  "bytecode": "0x60806040523480156200001157600080fd5b5033600960006101000a81548173ffffffffffffffffffffffffffffffffffffffff021916908373ffffffffffffffffffffffffffffffffffffffff16021790555062000090600960009054906101000a900473ffffffffffffffffffffffffffffffffffffffff1660006200009660201b620018a21790919060201c565b6200025a565b620000a882826200017a60201b60201c565b156200011c576040517f08c379a000000000000000000000000000000000000000000000000000000000815260040180806020018281038252601f8152602001807f526f6c65733a206163636f756e7420616c72656164792068617320726f6c650081525060200191505060405180910390fd5b60018260000160008373ffffffffffffffffffffffffffffffffffffffff1673ffffffffffffffffffffffffffffffffffffffff16815260200190815260200160002060006101000a81548160ff0219169083151502179055505050565b60008073ffffffffffffffffffffffffffffffffffffffff168273ffffffffffffffffffffffffffffffffffffffff16141562000203576040517f08c379a000000000000000000000000000000000000000000000000000000000815260040180806020018281038252602281526020018062001d046022913960400191505060405180910390fd5b8260000160008373ffffffffffffffffffffffffffffffffffffffff1673ffffffffffffffffffffffffffffffffffffffff16815260200190815260200160002060009054906101000a900460ff16905092915050565b611a9a806200026a6000396000f3fe608060405234801561001057600080fd5b50600436106101165760003560e01c80636e9960c3116100a2578063a193717c11610071578063a193717c14610752578063b6626dc21461082d578063ba475d651461089b578063d51fd06114610976578063f8a0977d14610a5157610116565b80636e9960c3146105755780638f9c79ed146105bf578063996440c61461061b5780639d366e261461067757610116565b80633b1693b6116100e95780633b1693b6146102c65780634fcd7bbe1461030a57806351a090e41461035457806358dae14f146104115780636052f825146104b857610116565b806302513ed21461011b57806314757a881461015f5780632cfb8a691461023a57806331357af2146102a8575b600080fd5b61015d6004803603602081101561013157600080fd5b81019080803573ffffffffffffffffffffffffffffffffffffffff169060200190929190505050610b0e565b005b6102386004803603604081101561017557600080fd5b810190808035906020019064010000000081111561019257600080fd5b8201836020820111156101a457600080fd5b803590602001918460018302840111640100000000831117156101c657600080fd5b91908080601f016020809104026020016040519081016040528093929190818152602001838380828437600081840152601f19601f820116905080830192505050505050509192919290803573ffffffffffffffffffffffffffffffffffffffff169060200190929190505050610bb2565b005b6102666004803603602081101561025057600080fd5b8101908080359060200190929190505050610cdf565b604051808273ffffffffffffffffffffffffffffffffffffffff1673ffffffffffffffffffffffffffffffffffffffff16815260200191505060405180910390f35b6102b0610d1b565b6040518082815260200191505060405180910390f35b610308600480360360208110156102dc57600080fd5b81019080803573ffffffffffffffffffffffffffffffffffffffff169060200190929190505050610d28565b005b610312610dcc565b604051808273ffffffffffffffffffffffffffffffffffffffff1673ffffffffffffffffffffffffffffffffffffffff16815260200191505060405180910390f35b6103966004803603602081101561036a57600080fd5b81019080803573ffffffffffffffffffffffffffffffffffffffff169060200190929190505050610df6565b6040518080602001828103825283818151815260200191508051906020019080838360005b838110156103d65780820151818401526020810190506103bb565b50505050905090810190601f1680156104035780820380516001836020036101000a031916815260200191505b509250505060405180910390f35b61043d6004803603602081101561042757600080fd5b8101908080359060200190929190505050610f31565b6040518080602001828103825283818151815260200191508051906020019080838360005b8381101561047d578082015181840152602081019050610462565b50505050905090810190601f1680156104aa5780820380516001836020036101000a031916815260200191505b509250505060405180910390f35b6104fa600480360360208110156104ce57600080fd5b81019080803573ffffffffffffffffffffffffffffffffffffffff169060200190929190505050610fea565b6040518080602001828103825283818151815260200191508051906020019080838360005b8381101561053a57808201518184015260208101905061051f565b50505050905090810190601f1680156105675780820380516001836020036101000a031916815260200191505b509250505060405180910390f35b61057d6110ce565b604051808273ffffffffffffffffffffffffffffffffffffffff1673ffffffffffffffffffffffffffffffffffffffff16815260200191505060405180910390f35b610601600480360360208110156105d557600080fd5b81019080803573ffffffffffffffffffffffffffffffffffffffff1690602001909291905050506110f8565b604051808215151515815260200191505060405180910390f35b61065d6004803603602081101561063157600080fd5b81019080803573ffffffffffffffffffffffffffffffffffffffff169060200190929190505050611115565b604051808215151515815260200191505060405180910390f35b6107506004803603604081101561068d57600080fd5b81019080803573ffffffffffffffffffffffffffffffffffffffff169060200190929190803590602001906401000000008111156106ca57600080fd5b8201836020820111156106dc57600080fd5b803590602001918460018302840111640100000000831117156106fe57600080fd5b91908080601f016020809104026020016040519081016040528093929190818152602001838380828437600081840152601f19601f820116905080830192505050505050509192919290505050611132565b005b61082b6004803603604081101561076857600080fd5b81019080803573ffffffffffffffffffffffffffffffffffffffff169060200190929190803590602001906401000000008111156107a557600080fd5b8201836020820111156107b757600080fd5b803590602001918460018302840111640100000000831117156107d957600080fd5b91908080601f016020809104026020016040519081016040528093929190818152602001838380828437600081840152601f19601f82011690508083019250505050505050919291929050505061129a565b005b6108596004803603602081101561084357600080fd5b8101908080359060200190929190505050611361565b604051808273ffffffffffffffffffffffffffffffffffffffff1673ffffffffffffffffffffffffffffffffffffffff16815260200191505060405180910390f35b610974600480360360408110156108b157600080fd5b81019080803573ffffffffffffffffffffffffffffffffffffffff169060200190929190803590602001906401000000008111156108ee57600080fd5b82018360208201111561090057600080fd5b8035906020019184600183028401116401000000008311171561092257600080fd5b91908080601f016020809104026020016040519081016040528093929190818152602001838380828437600081840152601f19601f82011690508083019250505050505050919291929050505061139d565b005b610a4f6004803603604081101561098c57600080fd5b81019080803573ffffffffffffffffffffffffffffffffffffffff169060200190929190803590602001906401000000008111156109c957600080fd5b8201836020820111156109db57600080fd5b803590602001918460018302840111640100000000831117156109fd57600080fd5b91908080601f016020809104026020016040519081016040528093929190818152602001838380828437600081840152601f19601f820116905080830192505050505050509192919290505050611464565b005b610a9360048036036020811015610a6757600080fd5b81019080803573ffffffffffffffffffffffffffffffffffffffff1690602001909291905050506115cc565b6040518080602001828103825283818151815260200191508051906020019080838360005b83811015610ad3578082015181840152602081019050610ab8565b50505050905090810190601f168015610b005780820380516001836020036101000a031916815260200191505b509250505060405180910390f35b60011515610b2633600061170790919063ffffffff16565b151514610b9b576040517f08c379a00000000000000000000000000000000000000000000000000000000081526004018080602001828103825260168152602001807f4f6e6c792041646d696e2043616e20446f20546861740000000000000000000081525060200191505060405180910390fd5b610baf8160026117e590919063ffffffff16565b50565b60011515610bca33600161170790919063ffffffff16565b151514610c3f576040517f08c379a00000000000000000000000000000000000000000000000000000000081526004018080602001828103825260178152602001807f4f6e6c7920446f63746f722043616e20446f205468617400000000000000000081525060200191505060405180910390fd5b6000600560008373ffffffffffffffffffffffffffffffffffffffff1673ffffffffffffffffffffffffffffffffffffffff168152602001908152602001600020905082816000019080519060200190610c9a92919061197d565b506008839080600181540180825580915050906001820390600052602060002001600090919290919091509080519060200190610cd892919061197d565b5050505050565b60068181548110610cec57fe5b906000526020600020016000915054906101000a900473ffffffffffffffffffffffffffffffffffffffff1681565b6000600680549050905090565b60011515610d4033600061170790919063ffffffff16565b151514610db5576040517f08c379a00000000000000000000000000000000000000000000000000000000081526004018080602001828103825260168152602001807f4f6e6c792041646d696e2043616e20446f20546861740000000000000000000081525060200191505060405180910390fd5b610dc98160016117e590919063ffffffff16565b50565b6000600b60009054906101000a900473ffffffffffffffffffffffffffffffffffffffff16905090565b6060610e0c82600161170790919063ffffffff16565b15610ef357600360008373ffffffffffffffffffffffffffffffffffffffff1673ffffffffffffffffffffffffffffffffffffffff1681526020019081526020016000206000018054600181600116156101000203166002900480601f016020809104026020016040519081016040528092919081815260200182805460018160011615610100020316600290048015610ee75780601f10610ebc57610100808354040283529160200191610ee7565b820191906000526020600020905b815481529060010190602001808311610eca57829003601f168201915b50505050509050610f2c565b6040518060400160405280600581526020017f6572726f7200000000000000000000000000000000000000000000000000000081525090505b919050565b60088181548110610f3e57fe5b906000526020600020016000915090508054600181600116156101000203166002900480601f016020809104026020016040519081016040528092919081815260200182805460018160011615610100020316600290048015610fe25780601f10610fb757610100808354040283529160200191610fe2565b820191906000526020600020905b815481529060010190602001808311610fc557829003601f168201915b505050505081565b6060600560008373ffffffffffffffffffffffffffffffffffffffff1673ffffffffffffffffffffffffffffffffffffffff1681526020019081526020016000206000018054600181600116156101000203166002900480601f0160208091040260200160405190810160405280929190818152602001828054600181600116156101000203166002900480156110c25780601f10611097576101008083540402835291602001916110c2565b820191906000526020600020905b8154815290600101906020018083116110a557829003601f168201915b50505050509050919050565b6000600960009054906101000a900473ffffffffffffffffffffffffffffffffffffffff16905090565b600061110e82600261170790919063ffffffff16565b9050919050565b600061112b82600161170790919063ffffffff16565b9050919050565b6001151561114a33600061170790919063ffffffff16565b1515146111bf576040517f08c379a00000000000000000000000000000000000000000000000000000000081526004018080602001828103825260168152602001807f4f6e6c792041646d696e2043616e20446f20546861740000000000000000000081525060200191505060405180910390fd5b6000600360008473ffffffffffffffffffffffffffffffffffffffff1673ffffffffffffffffffffffffffffffffffffffff16815260200190815260200160002090508181600001908051906020019061121a92919061197d565b5060068390806001815401808255809150509060018203906000526020600020016000909192909190916101000a81548173ffffffffffffffffffffffffffffffffffffffff021916908373ffffffffffffffffffffffffffffffffffffffff160217905550506112958360016118a290919063ffffffff16565b505050565b6000600360003373ffffffffffffffffffffffffffffffffffffffff1673ffffffffffffffffffffffffffffffffffffffff1681526020019081526020016000209050818160000190805190602001906112f592919061197d565b5060068390806001815401808255809150509060018203906000526020600020016000909192909190916101000a81548173ffffffffffffffffffffffffffffffffffffffff021916908373ffffffffffffffffffffffffffffffffffffffff16021790555050505050565b6007818154811061136e57fe5b906000526020600020016000915054906101000a900473ffffffffffffffffffffffffffffffffffffffff1681565b6000600460003373ffffffffffffffffffffffffffffffffffffffff1673ffffffffffffffffffffffffffffffffffffffff1681526020019081526020016000209050818160000190805190602001906113f892919061197d565b5060078390806001815401808255809150509060018203906000526020600020016000909192909190916101000a81548173ffffffffffffffffffffffffffffffffffffffff021916908373ffffffffffffffffffffffffffffffffffffffff16021790555050505050565b6001151561147c33600061170790919063ffffffff16565b1515146114f1576040517f08c379a00000000000000000000000000000000000000000000000000000000081526004018080602001828103825260168152602001807f4f6e6c792041646d696e2043616e20446f20546861740000000000000000000081525060200191505060405180910390fd5b6000600460008473ffffffffffffffffffffffffffffffffffffffff1673ffffffffffffffffffffffffffffffffffffffff16815260200190815260200160002090508181600001908051906020019061154c92919061197d565b5060078390806001815401808255809150509060018203906000526020600020016000909192909190916101000a81548173ffffffffffffffffffffffffffffffffffffffff021916908373ffffffffffffffffffffffffffffffffffffffff160217905550506115c78360026118a290919063ffffffff16565b505050565b60606115e282600261170790919063ffffffff16565b156116c957600460008373ffffffffffffffffffffffffffffffffffffffff1673ffffffffffffffffffffffffffffffffffffffff1681526020019081526020016000206000018054600181600116156101000203166002900480601f0160208091040260200160405190810160405280929190818152602001828054600181600116156101000203166002900480156116bd5780601f10611692576101008083540402835291602001916116bd565b820191906000526020600020905b8154815290600101906020018083116116a057829003601f168201915b50505050509050611702565b6040518060400160405280600581526020017f6572726f7200000000000000000000000000000000000000000000000000000081525090505b919050565b60008073ffffffffffffffffffffffffffffffffffffffff168273ffffffffffffffffffffffffffffffffffffffff16141561178e576040517f08c379a0000000000000000000000000000000000000000000000000000000008152600401808060200182810382526022815260200180611a446022913960400191505060405180910390fd5b8260000160008373ffffffffffffffffffffffffffffffffffffffff1673ffffffffffffffffffffffffffffffffffffffff16815260200190815260200160002060009054906101000a900460ff16905092915050565b6117ef8282611707565b611844576040517f08c379a0000000000000000000000000000000000000000000000000000000008152600401808060200182810382526021815260200180611a236021913960400191505060405180910390fd5b60008260000160008373ffffffffffffffffffffffffffffffffffffffff1673ffffffffffffffffffffffffffffffffffffffff16815260200190815260200160002060006101000a81548160ff0219169083151502179055505050565b6118ac8282611707565b1561191f576040517f08c379a000000000000000000000000000000000000000000000000000000000815260040180806020018281038252601f8152602001807f526f6c65733a206163636f756e7420616c72656164792068617320726f6c650081525060200191505060405180910390fd5b60018260000160008373ffffffffffffffffffffffffffffffffffffffff1673ffffffffffffffffffffffffffffffffffffffff16815260200190815260200160002060006101000a81548160ff0219169083151502179055505050565b828054600181600116156101000203166002900490600052602060002090601f016020900481019282601f106119be57805160ff19168380011785556119ec565b828001600101855582156119ec579182015b828111156119eb5782518255916020019190600101906119d0565b5b5090506119f991906119fd565b5090565b611a1f91905b80821115611a1b576000816000905550600101611a03565b5090565b9056fe526f6c65733a206163636f756e7420646f6573206e6f74206861766520726f6c65526f6c65733a206163636f756e7420697320746865207a65726f2061646472657373a265627a7a7231582080b562b78da7a628f8ce8391d88b83a03395508feda7deed1d920fef993ece0b64736f6c63430005100032526f6c65733a206163636f756e7420697320746865207a65726f2061646472657373",
  "source": "// SPDX-License-Identifier: UNLICENSED\npragma solidity >=0.4.22 <0.9.0;\n\nimport \"./Roles.sol\";\n\ncontract EHR {\n    using Roles for Roles.Role;\n\n    Roles.Role private admin;\n    Roles.Role private doctor;\n    Roles.Role private patient;\n\n    struct Doctor {\n        string docHash;\n    }\n\n    struct Patient {\n        string patHash;\n    }\n\n    struct MedicalRecord {\n        string recHash;\n    }\n\n    mapping(address => Doctor) Doctors;\n    mapping(address => Patient) Patients;\n    mapping(address => MedicalRecord) Records;\n\n    address[] public DocIds;\n    address[] public PatIds;\n    string[] public RecordHashes;\n\n    address admin_id;\n    address patient_id;\n    address doctor_id;\n\n    // Constructor\n    constructor() public {\n        admin_id = msg.sender;\n        admin.add(admin_id);\n    }\n\n    // Get Admin\n    function getAdmin() public view returns (address) {\n        return admin_id;\n    }\n\n    /* DOCTORS */\n\n    function addDoctorInfo(address publicKey, string memory _drInfo_hash)\n        public\n        onlyAdmin\n    {\n        Doctor storage drInfo = Doctors[publicKey];\n        drInfo.docHash = _drInfo_hash;\n        DocIds.push(publicKey);\n\n        doctor.add(publicKey);\n    }\n\n    function updateDoctorInfo(address publicKey, string memory _drInfo_hash)\n        public\n    {\n        Doctor storage drInfo = Doctors[msg.sender];\n        drInfo.docHash = _drInfo_hash;\n        DocIds.push(publicKey);\n    }\n\n    // function addDoctor(address publicKey) external onlyAdmin {\n    //     doctor.add(publicKey);\n    // }\n\n    function deleteDoctor(address publicKey) external onlyAdmin {\n        doctor.remove(publicKey);\n    }\n\n    function getDoctorId() public view returns (address) {\n        return doctor_id;\n    }\n\n    // function search(address _id)public{\n    //     doctor_id = _id;\n    // }\n\n    // function getDoctorInfo() public view returns (string memory) {\n    //     return (Doctors[doctor_id].docHash);\n    // }\n\n    function getDoctorInfoByAddress(address publicKey)\n        public\n        view\n        returns (string memory)\n    {\n        if (doctor.has(publicKey)) {\n            return (Doctors[publicKey].docHash);\n        } else {\n            return \"error\";\n        }\n    }\n\n    // function isDoctor(address publicKey) public view returns (string memory) {\n    //     require(doctor.has(publicKey), \"Only for Doctors\");\n    //     return \"1\";\n    // }\n\n    function isDoctor(address publicKey) public view returns (bool) {\n        return doctor.has(publicKey);\n    }\n\n    function getDoctorsCount() public view returns (uint256) {\n        return (DocIds.length);\n    }\n\n    /* PATIENT */\n\n    function addPatientInfo(address publicKey, string memory _patInfo_hash)\n        public\n        onlyAdmin\n    {\n        Patient storage patInfo = Patients[publicKey];\n        patInfo.patHash = _patInfo_hash;\n        PatIds.push(publicKey);\n\n        patient.add(publicKey);\n    }\n\n    function isPatient(address publicKey) public view returns (bool) {\n        return patient.has(publicKey);\n    }\n\n    // function addPatient(address publicKey) external onlyAdmin {\n    //     patient.add(publicKey);\n    // }\n\n    function deletePatient(address publicKey) external onlyAdmin {\n        patient.remove(publicKey);\n    }\n\n    function updatePatientInfo(address publicKey, string memory _patInfo_hash)\n        public\n    {\n        Patient storage patInfo = Patients[msg.sender];\n        patInfo.patHash = _patInfo_hash;\n        PatIds.push(publicKey);\n    }\n\n    // function addRecord(address _patId) external onlyDoctor {\n    //     require(patient.has(_patId) == true, \"is not a Patient\");\n    //     patient_id = _patId;\n    // }\n\n    // function viewPatRec(address _patid) public{\n    //     get_patient_id = _patid;\n    // }\n\n    // function get() public view  returns(address){\n    //     return msg.sender;\n    // }\n\n    // function getPatientId() public view returns (address) {\n    //     return patient_id;\n    // }\n\n    function getPatientInfoByAddress(address publicKey)\n        public\n        view\n        returns (string memory)\n    {\n        if (patient.has(publicKey)) {\n            return (Patients[publicKey].patHash);\n        } else {\n            return \"error\";\n        }\n    }\n\n    /* MEDICAL RECORDS */\n\n    function addMedicalRecord(string memory _recHash, address _pat_id)\n        public\n        onlyDoctor\n    {\n        MedicalRecord storage record = Records[_pat_id];\n        record.recHash = _recHash;\n        RecordHashes.push(_recHash);\n    }\n\n    function viewMedicalRecord(address _pat_id)\n        public\n        view\n        returns (string memory)\n    {\n        return (Records[_pat_id].recHash);\n    }\n\n    /* MODIFIERS */\n\n    modifier onlyAdmin() {\n        require(admin.has(msg.sender) == true, \"Only Admin Can Do That\");\n        _;\n    }\n    modifier onlyDoctor() {\n        require(doctor.has(msg.sender) == true, \"Only Doctor Can Do That\");\n        _;\n    }\n    modifier onlyPatient() {\n        require(patient.has(msg.sender) == true, \"Only Patient Can Do That\");\n        _;\n    }\n}\n",
  "sourcePath": "/Users/roopinbhadri/Documents/MedicPlus/contracts/EHR.sol",
  "compiler": {
    "name": "solc",
    "version": "0.5.16+commit.9c3226ce.Emscripten.clang"
  },
  "schemaVersion": "3.4.3",
  "updatedAt": "2021-11-14T16:06:20.439Z",
  "networkType": "ethereum",
  "devdoc": {
    "methods": {}
  },
  "userdoc": {
    "methods": {}
  }
}