{
  "contractName": "EHR",
  "abi": [
    {
      "inputs": [],
      "payable": false,
      "stateMutability": "nonpayable",
      "type": "constructor"
    },
    {
      "constant": true,
      "inputs": [
        {
          "internalType": "uint256",
          "name": "",
          "type": "uint256"
        }
      ],
      "name": "DocIds",
      "outputs": [
        {
          "internalType": "address",
          "name": "",
          "type": "address"
        }
      ],
      "payable": false,
      "stateMutability": "view",
      "type": "function"
    },
    {
      "constant": true,
      "inputs": [
        {
          "internalType": "uint256",
          "name": "",
          "type": "uint256"
        }
      ],
      "name": "PatIds",
      "outputs": [
        {
          "internalType": "address",
          "name": "",
          "type": "address"
        }
      ],
      "payable": false,
      "stateMutability": "view",
      "type": "function"
    },
    {
      "constant": true,
      "inputs": [
        {
          "internalType": "uint256",
          "name": "",
          "type": "uint256"
        }
      ],
      "name": "RecordHashes",
      "outputs": [
        {
          "internalType": "string",
          "name": "",
          "type": "string"
        }
      ],
      "payable": false,
      "stateMutability": "view",
      "type": "function"
    },
    {
      "constant": true,
      "inputs": [],
      "name": "getAdmin",
      "outputs": [
        {
          "internalType": "address",
          "name": "",
          "type": "address"
        }
      ],
      "payable": false,
      "stateMutability": "view",
      "type": "function"
    },
    {
      "constant": false,
      "inputs": [
        {
          "internalType": "address",
          "name": "publicKey",
          "type": "address"
        },
        {
          "internalType": "string",
          "name": "_drInfo_hash",
          "type": "string"
        }
      ],
      "name": "addDoctorInfo",
      "outputs": [],
      "payable": false,
      "stateMutability": "nonpayable",
      "type": "function"
    },
    {
      "constant": false,
      "inputs": [
        {
          "internalType": "address",
          "name": "publicKey",
          "type": "address"
        },
        {
          "internalType": "string",
          "name": "_drInfo_hash",
          "type": "string"
        }
      ],
      "name": "updateDoctorInfo",
      "outputs": [],
      "payable": false,
      "stateMutability": "nonpayable",
      "type": "function"
    },
    {
      "constant": false,
      "inputs": [
        {
          "internalType": "address",
          "name": "publicKey",
          "type": "address"
        }
      ],
      "name": "addDoctor",
      "outputs": [],
      "payable": false,
      "stateMutability": "nonpayable",
      "type": "function"
    },
    {
      "constant": false,
      "inputs": [
        {
          "internalType": "address",
          "name": "publicKey",
          "type": "address"
        }
      ],
      "name": "deleteDoctor",
      "outputs": [],
      "payable": false,
      "stateMutability": "nonpayable",
      "type": "function"
    },
    {
      "constant": true,
      "inputs": [],
      "name": "getDoctorId",
      "outputs": [
        {
          "internalType": "address",
          "name": "",
          "type": "address"
        }
      ],
      "payable": false,
      "stateMutability": "view",
      "type": "function"
    },
    {
      "constant": true,
      "inputs": [
        {
          "internalType": "address",
          "name": "publicKey",
          "type": "address"
        }
      ],
      "name": "getDoctorInfoByAddress",
      "outputs": [
        {
          "internalType": "string",
          "name": "",
          "type": "string"
        }
      ],
      "payable": false,
      "stateMutability": "view",
      "type": "function"
    },
    {
      "constant": true,
      "inputs": [
        {
          "internalType": "address",
          "name": "publicKey",
          "type": "address"
        }
      ],
      "name": "isDoctor",
      "outputs": [
        {
          "internalType": "string",
          "name": "",
          "type": "string"
        }
      ],
      "payable": false,
      "stateMutability": "view",
      "type": "function"
    },
    {
      "constant": true,
      "inputs": [],
      "name": "getDoctorsCount",
      "outputs": [
        {
          "internalType": "uint256",
          "name": "",
          "type": "uint256"
        }
      ],
      "payable": false,
      "stateMutability": "view",
      "type": "function"
    },
    {
      "constant": false,
      "inputs": [
        {
          "internalType": "address",
          "name": "publicKey",
          "type": "address"
        },
        {
          "internalType": "string",
          "name": "_patInfo_hash",
          "type": "string"
        }
      ],
      "name": "addPatientInfo",
      "outputs": [],
      "payable": false,
      "stateMutability": "nonpayable",
      "type": "function"
    },
    {
      "constant": true,
      "inputs": [
        {
          "internalType": "address",
          "name": "publicKey",
          "type": "address"
        }
      ],
      "name": "isPatient",
      "outputs": [
        {
          "internalType": "bool",
          "name": "",
          "type": "bool"
        }
      ],
      "payable": false,
      "stateMutability": "view",
      "type": "function"
    },
    {
      "constant": false,
      "inputs": [
        {
          "internalType": "address",
          "name": "publicKey",
          "type": "address"
        }
      ],
      "name": "addPatient",
      "outputs": [],
      "payable": false,
      "stateMutability": "nonpayable",
      "type": "function"
    },
    {
      "constant": false,
      "inputs": [
        {
          "internalType": "address",
          "name": "publicKey",
          "type": "address"
        }
      ],
      "name": "deletePatient",
      "outputs": [],
      "payable": false,
      "stateMutability": "nonpayable",
      "type": "function"
    },
    {
      "constant": true,
      "inputs": [
        {
          "internalType": "address",
          "name": "publicKey",
          "type": "address"
        }
      ],
      "name": "getPatientInfoByAddress",
      "outputs": [
        {
          "internalType": "string",
          "name": "",
          "type": "string"
        }
      ],
      "payable": false,
      "stateMutability": "view",
      "type": "function"
    },
    {
      "constant": false,
      "inputs": [
        {
          "internalType": "string",
          "name": "_recHash",
          "type": "string"
        },
        {
          "internalType": "address",
          "name": "_pat_id",
          "type": "address"
        }
      ],
      "name": "addMedicalRecord",
      "outputs": [],
      "payable": false,
      "stateMutability": "nonpayable",
      "type": "function"
    },
    {
      "constant": true,
      "inputs": [
        {
          "internalType": "address",
          "name": "_pat_id",
          "type": "address"
        }
      ],
      "name": "viewMedicalRecord",
      "outputs": [
        {
          "internalType": "string",
          "name": "",
          "type": "string"
        }
      ],
      "payable": false,
      "stateMutability": "view",
      "type": "function"
    }
  ],
  "bytecode": "0x60806040523480156200001157600080fd5b5033600960006101000a81548173ffffffffffffffffffffffffffffffffffffffff021916908373ffffffffffffffffffffffffffffffffffffffff16021790555062000090600960009054906101000a900473ffffffffffffffffffffffffffffffffffffffff1660006200009660201b620019361790919060201c565b6200025a565b620000a882826200017a60201b60201c565b156200011c576040517f08c379a000000000000000000000000000000000000000000000000000000000815260040180806020018281038252601f8152602001807f526f6c65733a206163636f756e7420616c72656164792068617320726f6c650081525060200191505060405180910390fd5b60018260000160008373ffffffffffffffffffffffffffffffffffffffff1673ffffffffffffffffffffffffffffffffffffffff16815260200190815260200160002060006101000a81548160ff0219169083151502179055505050565b60008073ffffffffffffffffffffffffffffffffffffffff168273ffffffffffffffffffffffffffffffffffffffff16141562000203576040517f08c379a000000000000000000000000000000000000000000000000000000000815260040180806020018281038252602281526020018062001d986022913960400191505060405180910390fd5b8260000160008373ffffffffffffffffffffffffffffffffffffffff1673ffffffffffffffffffffffffffffffffffffffff16815260200190815260200160002060009054906101000a900460ff16905092915050565b611b2e806200026a6000396000f3fe608060405234801561001057600080fd5b50600436106101215760003560e01c80636052f825116100ad5780639d366e26116100715780639d366e261461076b578063a193717c14610846578063b6626dc214610921578063d51fd0611461098f578063f8a0977d14610a6a57610121565b80636052f825146105075780636d263ceb146105c45780636e9960c3146106085780638f9c79ed14610652578063996440c6146106ae57610121565b80633b1693b6116100f45780633b1693b6146102d15780634780468f146103155780634fcd7bbe1461035957806351a090e4146103a357806358dae14f1461046057610121565b806302513ed21461012657806314757a881461016a5780632cfb8a691461024557806331357af2146102b3575b600080fd5b6101686004803603602081101561013c57600080fd5b81019080803573ffffffffffffffffffffffffffffffffffffffff169060200190929190505050610b27565b005b6102436004803603604081101561018057600080fd5b810190808035906020019064010000000081111561019d57600080fd5b8201836020820111156101af57600080fd5b803590602001918460018302840111640100000000831117156101d157600080fd5b91908080601f016020809104026020016040519081016040528093929190818152602001838380828437600081840152601f19601f820116905080830192505050505050509192919290803573ffffffffffffffffffffffffffffffffffffffff169060200190929190505050610bcb565b005b6102716004803603602081101561025b57600080fd5b8101908080359060200190929190505050610cf8565b604051808273ffffffffffffffffffffffffffffffffffffffff1673ffffffffffffffffffffffffffffffffffffffff16815260200191505060405180910390f35b6102bb610d34565b6040518082815260200191505060405180910390f35b610313600480360360208110156102e757600080fd5b81019080803573ffffffffffffffffffffffffffffffffffffffff169060200190929190505050610d41565b005b6103576004803603602081101561032b57600080fd5b81019080803573ffffffffffffffffffffffffffffffffffffffff169060200190929190505050610de5565b005b610361610e89565b604051808273ffffffffffffffffffffffffffffffffffffffff1673ffffffffffffffffffffffffffffffffffffffff16815260200191505060405180910390f35b6103e5600480360360208110156103b957600080fd5b81019080803573ffffffffffffffffffffffffffffffffffffffff169060200190929190505050610eb3565b6040518080602001828103825283818151815260200191508051906020019080838360005b8381101561042557808201518184015260208101905061040a565b50505050905090810190601f1680156104525780820380516001836020036101000a031916815260200191505b509250505060405180910390f35b61048c6004803603602081101561047657600080fd5b8101908080359060200190929190505050610f97565b6040518080602001828103825283818151815260200191508051906020019080838360005b838110156104cc5780820151818401526020810190506104b1565b50505050905090810190601f1680156104f95780820380516001836020036101000a031916815260200191505b509250505060405180910390f35b6105496004803603602081101561051d57600080fd5b81019080803573ffffffffffffffffffffffffffffffffffffffff169060200190929190505050611050565b6040518080602001828103825283818151815260200191508051906020019080838360005b8381101561058957808201518184015260208101905061056e565b50505050905090810190601f1680156105b65780820380516001836020036101000a031916815260200191505b509250505060405180910390f35b610606600480360360208110156105da57600080fd5b81019080803573ffffffffffffffffffffffffffffffffffffffff169060200190929190505050611134565b005b6106106111d8565b604051808273ffffffffffffffffffffffffffffffffffffffff1673ffffffffffffffffffffffffffffffffffffffff16815260200191505060405180910390f35b6106946004803603602081101561066857600080fd5b81019080803573ffffffffffffffffffffffffffffffffffffffff169060200190929190505050611202565b604051808215151515815260200191505060405180910390f35b6106f0600480360360208110156106c457600080fd5b81019080803573ffffffffffffffffffffffffffffffffffffffff16906020019092919050505061121f565b6040518080602001828103825283818151815260200191508051906020019080838360005b83811015610730578082015181840152602081019050610715565b50505050905090810190601f16801561075d5780820380516001836020036101000a031916815260200191505b509250505060405180910390f35b6108446004803603604081101561078157600080fd5b81019080803573ffffffffffffffffffffffffffffffffffffffff169060200190929190803590602001906401000000008111156107be57600080fd5b8201836020820111156107d057600080fd5b803590602001918460018302840111640100000000831117156107f257600080fd5b91908080601f016020809104026020016040519081016040528093929190818152602001838380828437600081840152601f19601f8201169050808301925050505050505091929192905050506112e4565b005b61091f6004803603604081101561085c57600080fd5b81019080803573ffffffffffffffffffffffffffffffffffffffff1690602001909291908035906020019064010000000081111561089957600080fd5b8201836020820111156108ab57600080fd5b803590602001918460018302840111640100000000831117156108cd57600080fd5b91908080601f016020809104026020016040519081016040528093929190818152602001838380828437600081840152601f19601f82011690508083019250505050505050919291929050505061144c565b005b61094d6004803603602081101561093757600080fd5b8101908080359060200190929190505050611513565b604051808273ffffffffffffffffffffffffffffffffffffffff1673ffffffffffffffffffffffffffffffffffffffff16815260200191505060405180910390f35b610a68600480360360408110156109a557600080fd5b81019080803573ffffffffffffffffffffffffffffffffffffffff169060200190929190803590602001906401000000008111156109e257600080fd5b8201836020820111156109f457600080fd5b80359060200191846001830284011164010000000083111715610a1657600080fd5b91908080601f016020809104026020016040519081016040528093929190818152602001838380828437600081840152601f19601f82011690508083019250505050505050919291929050505061154f565b005b610aac60048036036020811015610a8057600080fd5b81019080803573ffffffffffffffffffffffffffffffffffffffff1690602001909291905050506116b7565b6040518080602001828103825283818151815260200191508051906020019080838360005b83811015610aec578082015181840152602081019050610ad1565b50505050905090810190601f168015610b195780820380516001836020036101000a031916815260200191505b509250505060405180910390f35b60011515610b3f33600061179b90919063ffffffff16565b151514610bb4576040517f08c379a00000000000000000000000000000000000000000000000000000000081526004018080602001828103825260168152602001807f4f6e6c792041646d696e2043616e20446f20546861740000000000000000000081525060200191505060405180910390fd5b610bc881600261187990919063ffffffff16565b50565b60011515610be333600161179b90919063ffffffff16565b151514610c58576040517f08c379a00000000000000000000000000000000000000000000000000000000081526004018080602001828103825260178152602001807f4f6e6c7920446f63746f722043616e20446f205468617400000000000000000081525060200191505060405180910390fd5b6000600560008373ffffffffffffffffffffffffffffffffffffffff1673ffffffffffffffffffffffffffffffffffffffff168152602001908152602001600020905082816000019080519060200190610cb3929190611a11565b506008839080600181540180825580915050906001820390600052602060002001600090919290919091509080519060200190610cf1929190611a11565b5050505050565b60068181548110610d0557fe5b906000526020600020016000915054906101000a900473ffffffffffffffffffffffffffffffffffffffff1681565b6000600680549050905090565b60011515610d5933600061179b90919063ffffffff16565b151514610dce576040517f08c379a00000000000000000000000000000000000000000000000000000000081526004018080602001828103825260168152602001807f4f6e6c792041646d696e2043616e20446f20546861740000000000000000000081525060200191505060405180910390fd5b610de281600161187990919063ffffffff16565b50565b60011515610dfd33600061179b90919063ffffffff16565b151514610e72576040517f08c379a00000000000000000000000000000000000000000000000000000000081526004018080602001828103825260168152602001807f4f6e6c792041646d696e2043616e20446f20546861740000000000000000000081525060200191505060405180910390fd5b610e8681600161193690919063ffffffff16565b50565b6000600b60009054906101000a900473ffffffffffffffffffffffffffffffffffffffff16905090565b6060600360008373ffffffffffffffffffffffffffffffffffffffff1673ffffffffffffffffffffffffffffffffffffffff1681526020019081526020016000206000018054600181600116156101000203166002900480601f016020809104026020016040519081016040528092919081815260200182805460018160011615610100020316600290048015610f8b5780601f10610f6057610100808354040283529160200191610f8b565b820191906000526020600020905b815481529060010190602001808311610f6e57829003601f168201915b50505050509050919050565b60088181548110610fa457fe5b906000526020600020016000915090508054600181600116156101000203166002900480601f0160208091040260200160405190810160405280929190818152602001828054600181600116156101000203166002900480156110485780601f1061101d57610100808354040283529160200191611048565b820191906000526020600020905b81548152906001019060200180831161102b57829003601f168201915b505050505081565b6060600560008373ffffffffffffffffffffffffffffffffffffffff1673ffffffffffffffffffffffffffffffffffffffff1681526020019081526020016000206000018054600181600116156101000203166002900480601f0160208091040260200160405190810160405280929190818152602001828054600181600116156101000203166002900480156111285780601f106110fd57610100808354040283529160200191611128565b820191906000526020600020905b81548152906001019060200180831161110b57829003601f168201915b50505050509050919050565b6001151561114c33600061179b90919063ffffffff16565b1515146111c1576040517f08c379a00000000000000000000000000000000000000000000000000000000081526004018080602001828103825260168152602001807f4f6e6c792041646d696e2043616e20446f20546861740000000000000000000081525060200191505060405180910390fd5b6111d581600261193690919063ffffffff16565b50565b6000600960009054906101000a900473ffffffffffffffffffffffffffffffffffffffff16905090565b600061121882600261179b90919063ffffffff16565b9050919050565b606061123582600161179b90919063ffffffff16565b6112a7576040517f08c379a00000000000000000000000000000000000000000000000000000000081526004018080602001828103825260108152602001807f4f6e6c7920666f7220446f63746f72730000000000000000000000000000000081525060200191505060405180910390fd5b6040518060400160405280600181526020017f31000000000000000000000000000000000000000000000000000000000000008152509050919050565b600115156112fc33600061179b90919063ffffffff16565b151514611371576040517f08c379a00000000000000000000000000000000000000000000000000000000081526004018080602001828103825260168152602001807f4f6e6c792041646d696e2043616e20446f20546861740000000000000000000081525060200191505060405180910390fd5b6000600360008473ffffffffffffffffffffffffffffffffffffffff1673ffffffffffffffffffffffffffffffffffffffff1681526020019081526020016000209050818160000190805190602001906113cc929190611a11565b5060068390806001815401808255809150509060018203906000526020600020016000909192909190916101000a81548173ffffffffffffffffffffffffffffffffffffffff021916908373ffffffffffffffffffffffffffffffffffffffff1602179055505061144783600161193690919063ffffffff16565b505050565b6000600360003373ffffffffffffffffffffffffffffffffffffffff1673ffffffffffffffffffffffffffffffffffffffff1681526020019081526020016000209050818160000190805190602001906114a7929190611a11565b5060068390806001815401808255809150509060018203906000526020600020016000909192909190916101000a81548173ffffffffffffffffffffffffffffffffffffffff021916908373ffffffffffffffffffffffffffffffffffffffff16021790555050505050565b6007818154811061152057fe5b906000526020600020016000915054906101000a900473ffffffffffffffffffffffffffffffffffffffff1681565b6001151561156733600061179b90919063ffffffff16565b1515146115dc576040517f08c379a00000000000000000000000000000000000000000000000000000000081526004018080602001828103825260168152602001807f4f6e6c792041646d696e2043616e20446f20546861740000000000000000000081525060200191505060405180910390fd5b6000600460008473ffffffffffffffffffffffffffffffffffffffff1673ffffffffffffffffffffffffffffffffffffffff168152602001908152602001600020905081816000019080519060200190611637929190611a11565b5060078390806001815401808255809150509060018203906000526020600020016000909192909190916101000a81548173ffffffffffffffffffffffffffffffffffffffff021916908373ffffffffffffffffffffffffffffffffffffffff160217905550506116b283600261193690919063ffffffff16565b505050565b6060600460008373ffffffffffffffffffffffffffffffffffffffff1673ffffffffffffffffffffffffffffffffffffffff1681526020019081526020016000206000018054600181600116156101000203166002900480601f01602080910402602001604051908101604052809291908181526020018280546001816001161561010002031660029004801561178f5780601f106117645761010080835404028352916020019161178f565b820191906000526020600020905b81548152906001019060200180831161177257829003601f168201915b50505050509050919050565b60008073ffffffffffffffffffffffffffffffffffffffff168273ffffffffffffffffffffffffffffffffffffffff161415611822576040517f08c379a0000000000000000000000000000000000000000000000000000000008152600401808060200182810382526022815260200180611ad86022913960400191505060405180910390fd5b8260000160008373ffffffffffffffffffffffffffffffffffffffff1673ffffffffffffffffffffffffffffffffffffffff16815260200190815260200160002060009054906101000a900460ff16905092915050565b611883828261179b565b6118d8576040517f08c379a0000000000000000000000000000000000000000000000000000000008152600401808060200182810382526021815260200180611ab76021913960400191505060405180910390fd5b60008260000160008373ffffffffffffffffffffffffffffffffffffffff1673ffffffffffffffffffffffffffffffffffffffff16815260200190815260200160002060006101000a81548160ff0219169083151502179055505050565b611940828261179b565b156119b3576040517f08c379a000000000000000000000000000000000000000000000000000000000815260040180806020018281038252601f8152602001807f526f6c65733a206163636f756e7420616c72656164792068617320726f6c650081525060200191505060405180910390fd5b60018260000160008373ffffffffffffffffffffffffffffffffffffffff1673ffffffffffffffffffffffffffffffffffffffff16815260200190815260200160002060006101000a81548160ff0219169083151502179055505050565b828054600181600116156101000203166002900490600052602060002090601f016020900481019282601f10611a5257805160ff1916838001178555611a80565b82800160010185558215611a80579182015b82811115611a7f578251825591602001919060010190611a64565b5b509050611a8d9190611a91565b5090565b611ab391905b80821115611aaf576000816000905550600101611a97565b5090565b9056fe526f6c65733a206163636f756e7420646f6573206e6f74206861766520726f6c65526f6c65733a206163636f756e7420697320746865207a65726f2061646472657373a265627a7a7231582002159e6f216242c13bd16a0788018d94790f18f4fa85a9c29f6ca1b74719ef9964736f6c63430005100032526f6c65733a206163636f756e7420697320746865207a65726f2061646472657373",
  "source": "// SPDX-License-Identifier: UNLICENSED\npragma solidity >=0.4.22 <0.9.0;\n\nimport \"./Roles.sol\";\n\ncontract EHR {\n    using Roles for Roles.Role;\n\n    Roles.Role private admin;\n    Roles.Role private doctor;\n    Roles.Role private patient;\n\n    struct Doctor {\n        string docHash;\n    }\n\n    struct Patient {\n        string patHash;\n    }\n\n    struct MedicalRecord {\n        string recHash;\n    }\n\n    mapping(address => Doctor) Doctors;\n    mapping(address => Patient) Patients;\n    mapping(address => MedicalRecord) Records;\n\n    address[] public DocIds;\n    address[] public PatIds;\n    string[] public RecordHashes;\n\n    address admin_id;\n    address patient_id;\n    address doctor_id;\n\n    // Constructor\n    constructor() public {\n        admin_id = msg.sender;\n        admin.add(admin_id);\n    }\n\n    // Get Admin\n    function getAdmin() public view returns (address) {\n        return admin_id;\n    }\n\n    /* DOCTORS */\n\n    function addDoctorInfo(address publicKey, string memory _drInfo_hash)\n        public\n        onlyAdmin\n    {\n        Doctor storage drInfo = Doctors[publicKey];\n        drInfo.docHash = _drInfo_hash;\n        DocIds.push(publicKey);\n\n        doctor.add(publicKey);\n    }\n\n    function updateDoctorInfo(address publicKey, string memory _drInfo_hash)\n        public\n    {\n        Doctor storage drInfo = Doctors[msg.sender];\n        drInfo.docHash = _drInfo_hash;\n        DocIds.push(publicKey);\n    }\n\n    function addDoctor(address publicKey) external onlyAdmin {\n        doctor.add(publicKey);\n    }\n\n    function deleteDoctor(address publicKey) external onlyAdmin {\n        doctor.remove(publicKey);\n    }\n\n    function getDoctorId() public view returns (address) {\n        return doctor_id;\n    }\n\n    // function search(address _id)public{\n    //     doctor_id = _id;\n    // }\n\n    // function getDoctorInfo() public view returns (string memory) {\n    //     return (Doctors[doctor_id].docHash);\n    // }\n\n    function getDoctorInfoByAddress(address publicKey)\n        public\n        view\n        returns (string memory)\n    {\n        return (Doctors[publicKey].docHash);\n    }\n\n    function isDoctor(address publicKey) public view returns (string memory) {\n        require(doctor.has(publicKey), \"Only for Doctors\");\n        return \"1\";\n    }\n\n    function getDoctorsCount() public view returns (uint256) {\n        return (DocIds.length);\n    }\n\n    /* PATIENT */\n\n    function addPatientInfo(address publicKey, string memory _patInfo_hash)\n        public\n        onlyAdmin\n    {\n        Patient storage patInfo = Patients[publicKey];\n        patInfo.patHash = _patInfo_hash;\n        PatIds.push(publicKey);\n\n        patient.add(publicKey);\n    }\n\n    function isPatient(address publicKey) public view returns (bool) {\n        return patient.has(publicKey);\n    }\n\n    function addPatient(address publicKey) external onlyAdmin {\n        patient.add(publicKey);\n    }\n\n    function deletePatient(address publicKey) external onlyAdmin {\n        patient.remove(publicKey);\n    }\n\n    // function addRecord(address _patId) external onlyDoctor {\n    //     require(patient.has(_patId) == true, \"is not a Patient\");\n    //     patient_id = _patId;\n    // }\n\n    // function viewPatRec(address _patid) public{\n    //     get_patient_id = _patid;\n    // }\n\n    // function get() public view  returns(address){\n    //     return msg.sender;\n    // }\n\n    // function getPatientId() public view returns (address) {\n    //     return patient_id;\n    // }\n\n    function getPatientInfoByAddress(address publicKey)\n        public\n        view\n        returns (string memory)\n    {\n        return (Patients[publicKey].patHash);\n    }\n\n    /* MEDICAL RECORDS */\n\n    function addMedicalRecord(string memory _recHash, address _pat_id)\n        public\n        onlyDoctor\n    {\n        MedicalRecord storage record = Records[_pat_id];\n        record.recHash = _recHash;\n        RecordHashes.push(_recHash);\n    }\n\n    function viewMedicalRecord(address _pat_id)\n        public\n        view\n        returns (string memory)\n    {\n        return (Records[_pat_id].recHash);\n    }\n\n    /* MODIFIERS */\n\n    modifier onlyAdmin() {\n        require(admin.has(msg.sender) == true, \"Only Admin Can Do That\");\n        _;\n    }\n    modifier onlyDoctor() {\n        require(doctor.has(msg.sender) == true, \"Only Doctor Can Do That\");\n        _;\n    }\n    modifier onlyPatient() {\n        require(patient.has(msg.sender) == true, \"Only Patient Can Do That\");\n        _;\n    }\n}\n",
  "sourcePath": "/home/roopin619/MedicPlus/contracts/EHR.sol",
  "compiler": {
    "name": "solc",
    "version": "0.5.16+commit.9c3226ce.Emscripten.clang"
  },
  "schemaVersion": "3.4.3",
  "updatedAt": "2021-10-03T16:00:27.815Z",
  "networkType": "ethereum",
  "devdoc": {
    "methods": {}
  },
  "userdoc": {
    "methods": {}
  }
}